S012000043616C63756C61746F722E7372656308
S11300000C947D010C9492010C9492010C94920135
S11300100C9492010C9492010C9492010C94920110
S11300200C9492010C9492010C9492010C94920100
S11300300C9492010C9492010C9492010C949201F0
S11300400C9492010C9492010C9492010C949201E0
S11300500C949201A001B901D201EB010302030245
S11300600302030203020302030203020302030264
S11300700302030203020302030203020302030254
S11300800302030203020302030203020302030244
S113009003020302A001B901D201EB0110022902FB
S11300A042025B02730273027302730273027302ED
S11300B07302730273027302730273027302730294
S11300C07302730273027302730273027302730284
S11300D07302730273027302730273021002290221
S11300E042025B0280029402A802BC02D002D00247
S11300F0D002D002D002D002D002D002D002D0026C
S1130100D002D002D002D002D002D002D002D0025B
S1130110D002D002D002D002D002D002D002D0024B
S1130120D002D00280029402A802BC02DD02DF02E7
S1130130E102E302E402E402E402E402E402E4028F
S1130140E402E402E402E402E402E402E402E4027B
S1130150E402E402E402E402E402E402E402E4026B
S1130160E402E402E402E402E402E402DD02DF0267
S1130170E102E302F002F202F402F602F702F702ED
S1130180F702F702F702F702F702F702F702F702A3
S1130190F702F702F702F702F702F702F702F70293
S11301A0F702F702F702F702F702F702F702F70283
S11301B0F702F702F002F202F402F60204031D034E
S11301C036034F0367036703670367036703670324
S11301D067036703670367036703670367036703CB
S11301E067036703670367036703670367036703BB
S11301F067036703670367036703670304031D0358
S113020036034F03A406AE06AE06AE06AE063B06A4
S11302102906AE063206AE064606AE06AE06AE06A3
S1130220AE06AE06AE06AE06AE06AE06AE06AE062A
S1130230AE06AE06AE06AE06AE06AE06AE06AE061A
S1130240AE06AE06AE06AE06AE06AE06AE06AE060A
S1130250AE06AE06AE06AE06AE06AE06AE06AE06FA
S11302608306AE06AE06AE06AE06AE06AE06AE0615
S1130270AE06AE06AE06650607634236B79BD8A740
S11302801A39685618AEBAAB558C1D3CB7CC5763B7
S1130290BD6DEDFD753EF6177231BF000000803F65
S11302A008000000BE922449123EABAAAA2ABECD81
S11302B0CCCC4C3E00000080BEABAAAAAA3E0000F3
S11302C00000BF000000803F0000000000084178EB
S11302D0D3BB4387D1133D190E3CC3BD4282AD2B22
S11302E03E68EC8276BED98FE1A93E4C80EFFFBE1A
S11302F001C4FF7F3F000000000011241FBECFE5B2
S1130300D8E0DEBFCDBF10E0A0E6B0E0E6EEFCE151
S113031002C005900D92AA3BB107D9F70E94DA04F6
S11303200C94710E0C94000090E0FC01E154F1096E
S1130330E432F10508F067C0E65DFF4F0C941F0B33
S1130340413059F42AB381E090E002C0880F991F2C
S11303506A95E2F7822B8ABB08952AB381E090E084
S113036002C0880F991F6A95E2F7809582238ABBA1
S11303700895413059F427B381E090E002C0880F1A
S1130380991F6A95E2F7822B87BB089527B381E012
S113039090E002C0880F991F6A95E2F78095822346
S11303A087BB0895413059F424B381E090E002C042
S11303B0880F991F6A95E2F7822B84BB089524B3B2
S11303C081E090E002C0880F991F6A95E2F780955A
S11303D0822384BB0895413059F421B381E090E035
S11303E002C0880F991F6A95E2F7822B81BB08959A
S11303F021B381E090E002C0880F991F6A95E2F76B
S11304008095822381BB089590E0FC01E154F109B9
S1130410E432F10508F067C0E25BFF4F0C941F0B58
S1130420413059F42BB381E090E002C0880F991F4A
S11304306A95E2F7822B8BBB08952BB381E090E0A1
S113044002C0880F991F6A95E2F7809582238BBBBF
S11304500895413059F428B381E090E002C0880F38
S1130460991F6A95E2F7822B88BB089528B381E02F
S113047090E002C0880F991F6A95E2F78095822365
S113048088BB0895413059F425B381E090E002C05F
S1130490880F991F6A95E2F7822B85BB089525B3CF
S11304A081E090E002C0880F991F6A95E2F7809579
S11304B0822385BB0895413059F422B381E090E052
S11304C002C0880F991F6A95E2F7822B82BB0895B8
S11304D022B381E090E002C0880F991F6A95E2F789
S11304E08095822382BB089590E0FC01E154F109D8
S11304F0E432F10508F054C0EE58FF4F0C941F0B82
S113050049B381E090E09C01062E02C0220F331F04
S11305100A94E2F7842F90E08223932302C09595F6
S113052087956A95E2F7089546B381E090E09C01CF
S1130530062E02C0220F331F0A94E2F7842F90E0A4
S11305408223932302C0959587956A95E2F70895CF
S113055043B381E090E09C01062E02C0220F331FBA
S11305600A94E2F7842F90E08223932302C09595A6
S113057087956A95E2F7089540B381E090E09C0185
S1130580062E02C0220F331F0A94E2F7842F90E054
S11305908223932302C0959587956A95E2F708957F
S11305A080E0089590E0FC01E154F109E432F105A2
S11305B058F4EA56FF4F0C941F0B6ABB089567BBAF
S11305C0089564BB089561BB089590E0FC01E15473
S11305D0F109E432F10558F4E654FF4F0C941F0B73
S11305E06BBB089568BB089565BB089562BB08950D
S11305F090E0FC01E154F109E432F10508F067C030
S1130600E252FF4F0C941F0B413059F42BB381E09D
S113061090E002C0880F991F6A95E2F7822B8BBB8A
S113062008952BB381E090E002C0880F991F6A956A
S1130630E2F7809582238BBB0895413059F428B3A7
S113064081E090E002C0880F991F6A95E2F7822B3F
S113065088BB089528B381E090E002C0880F991FF9
S11306606A95E2F78095822388BB0895413059F456
S113067025B381E090E002C0880F991F6A95E2F7E4
S1130680822B85BB089525B381E090E002C0880FDA
S1130690991F6A95E2F78095822385BB08954130BE
S11306A059F422B381E090E002C0880F991F6A9543
S11306B0E2F7822B82BB089522B381E090E002C06E
S11306C0880F991F6A95E2F78095822382BB08956B
S11306D041E060E083E40E94940141E061E083E44E
S11306E00E94940141E062E083E40E94940141E0AD
S11306F063E083E40E94940140E060E084E40E94AB
S1130700940140E061E084E40E94940140E062E0EE
S113071084E40E94940140E063E084E40E94940134
S113072040E064E084E40E94940140E065E084E4F5
S11307300E94940141E060E084E40E94F80241E0F8
S113074061E084E40E94F80241E062E084E40E94F3
S1130750F80241E063E084E40E94F80241E064E0CE
S113076084E40E94F80241E065E084E40E94F80217
S11307700895EF92FF920F931F93CF93DF93CDB71A
S1130780DEB768970FB6F894DEBF0FBECDBF88E121
S1130790E0E6F0E0DE01119601900D928A95E1F712
S11307A0F12CEE24EA943BC041E060E083E40E9433
S11307B0040241E061E083E40E94040241E062E05B
S11307C083E40E94040241E063E083E40E940402A3
S11307D040E06F2D83E40E94040210E01BC0612FEF
S11307E084E40E947402082F811113C08F2D90E0BD
S11307F0FC01EE0FFF1FE80FF91FEE0FFF1F81E052
S113080090E08C0F9D1FE80FF91FE10FF11DE080B0
S113081003C01F5F163018F3002321F0F39493E014
S11308209F1510F68E2D68960FB6F894DEBF0FBE96
S1130830CDBFDF91CF911F910F91FF90EF9008955D
S113084041E062E082E40E9404028FE99FE00197A4
S1130850F1F700C0000040E062E082E40E9404027C
S11308608FE99FE00197F1F700C000000895CF934E
S1130870C82F40E060E082E40E9404026C2F81E40F
S11308800E94E5020E9420048FEC97E00197F1F7A3
S113089000C00000CF9108952FEF81EE94E0215025
S11308A080409040E1F700C000006FEF81E40E94B7
S11308B0D20241E062E082E40E94940141E061E0FE
S11308C082E40E94940141E060E082E40E94940189
S11308D040E061E082E40E94040288E30E9437045D
S11308E08FEC97E00197F1F700C0000081E00E94CF
S11308F037048FE19EE40197F1F700C000008EE019
S11309000E9437048FEC97E00197F1F700C00000D4
S113091086E00E9437048FEC97E00197F1F700C05E
S113092000000895CF93C82F41E060E082E40E9464
S113093004026C2F81E40E94E5020E942004CF91FE
S11309400895CF93DF93EC0103C00E949204219693
S113095088818111FACFDF91CF91089581E00E94BF
S113096037048FE19EE40197F1F700C00000089579
S11309709FEF980F923070F4613170F4662371F038
S1130980813019F48FE7860F0CC0823049F48FEB65
S1130990860F07C080E805C080E803C080E801C076
S11309A080E00E9437048FEC97E00197F1F700C0D4
S11309B000000895CF93DF93CDB7DEB768970FB6E5
S11309C0F894DEBF0FBECDBF0E944C040E946803A2
S11309D01C821B821A821982198618861F821E8223
S11309E00E94AE048EE00E943704B12C0E94B90329
S11309F0082F8B3211F08D3219F489818823B1F0DC
S1130A000E32A1F0003391F0013381F0023371F022
S1130A10033361F0043351F0053341F0063331F010
S1130A20073321F0083311F00933A9F4E1E0F0E0D1
S1130A30EC0FFD1FEB0DF11D0083802F0E9492042B
S1130A40B3942FE73AE146E0215030404040E1F7CB
S1130A5000C0000020C00B3261F00D3251F00A32A8
S1130A6041F00F3231F00E3521F0033511F005322B
S1130A7079F4033541F40E94AE0488E790E00E94C3
S1130A80A104102F0CC0802F0E949204102F07C0C5
S1130A90013409F49DCF54E0B512A8CF10E38FEFD1
S1130AA091EEA4E081509040A040E1F700C0000026
S1130AB0E1E0F0E0EC0FFD1FEB0DF11D1082CE0123
S1130AC001960E94610B9C01990F440B550B2D8BD1
S1130AD03E8B4F8B588F103359F50E94B903082F62
S1130AE08B3261F08D3251F08A3241F08F3231F025
S1130AF08E3521F0833511F0853269F4033539F4EC
S1130B000E94AE0488E790E00E94A10407C0802FF1
S1130B100E94920403C0813401F75ACF3FE74AE1AF
S1130B2056E0315040405040E1F700C00000102F23
S1130B300A3231F00F3221F00E3511F0053241F452
S1130B408D899E89AF89B88D892B8A2B8B2B51F087
S1130B500335C1F42D893E894F89588D232B242BCD
S1130B60252B91F00E94AE048EE790E00E94A10430
S1130B703FEF49E658E1315040405040E1F700C0B2
S1130B80000026CF00E001C000E00E94B9038B32D0
S1130B9011F08D3219F49E819923B1F08E32A1F0B7
S1130BA0803391F0813381F0823371F0833361F0CB
S1130BB0843351F0853341F0863331F0873321F0AB
S1130BC0883311F08933A1F4E6E0F0E0EC0FFD1F67
S1130BD0E00FF11D80830E9492040F5F8FE79AE17A
S1130BE0A6E081509040A040E1F700C0000005C09D
S1130BF0813409F4EDCE8D3311F0043031F6E6E0A2
S1130C00F0E0EC0FFD1FE00FF11D1082CE010696FF
S1130C100E94610B4C012C01990F660877080E9411
S1130C20B903082F8D3309F0B1C0133519F489E2E3
S1130C300E9492048DE30E949204812F90E0FC01B3
S1130C40B597EA33F10508F089C0EE5FFE4F0C94C6
S1130C501F0BCD88DE88EF88F88CC40CD51CE61CED
S1130C60F71C7CC0CD88DE88EF88F88CC418D508C2
S1130C70E608F70873C02D893E894F89588DC30152
S1130C80B2010E94F00A6B017C0168C04114510456
S1130C906104710459F06D897E898F89988DA3014F
S1130CA092010E94000B69017A0158C00E94AE04AF
S1130CB084E890E00E94A10464E082E00E94B80409
S1130CC085E990E00E94A10461C0B401092C000CE4
S1130CD0880B990B0E94B3076B017C016D897E8997
S1130CE08F89988D0E94B307A70196010E943F083F
S1130CF020E030E040E85FE30E940F070E947B079A
S1130D006B017C012BC0772084F06401092C000C5A
S1130D10EE08FF08C701B6010E94B3070E949508B8
S1130D200E947B076B017C0119C00E94AE048DE90F
S1130D3090E00E94A10465E082E00E94B8048DEA7C
S1130D4090E00E94A10422C06D897E898F89988DCC
S1130D50A30192010E94000B6B017C01FF92EF92B0
S1130D60DF92CF9282EB90E09F938F935E01BBE082
S1130D70AB0EB11CBF92AF920E94870BC5010E94BB
S1130D80A1040FB6F894DEBF0FBECDBF0D3309F03A
S1130D9046CF8CE00E9437043FE74AE156E03150E9
S1130DA040405040E1F700C000000E94B903182FF2
S1130DB08B3261F08D3251F08A3241F08F3231F052
S1130DC08E3521F0833511F0853219F50E94AE0479
S1130DD086EB90E00E94A1041E821F821886198669
S1130DE0133529F488E790E00E94A10403C0812F01
S1130DF00E9492048FE79AE1A6E081509040A040BF
S1130E00E1F700C00000012FCD8ADE8AEF8AF88E58
S1130E108FCE8F3F51F28D3341F2DACD5058BB273C
S1130E20AA270E9426070C9405080E94F70738F0A9
S1130E300E94FE0720F039F49F3F19F426F40C9425
S1130E40F4070EF4E095E7FB0C94EE07E92F0E94FB
S1130E50160858F3BA17620773078407950720F03A
S1130E6079F4A6F50C9438080EF4E0950B2EBA2FFD
S1130E70A02D0B01B90190010C01CA01A00111249C
S1130E80FF27591B99F0593F50F4503E68F11A1648
S1130E90F040A22F232F342F4427585FF3CF4695D9
S1130EA037952795A795F0405395C9F77EF41F16FB
S1130EB0BA0B620B730B840BBAF09150A1F0FF0FC5
S1130EC0BB1F661F771F881FC2F70EC0BA0F621FB1
S1130ED0731F841F48F4879577956795B795F795A1
S1130EE09E3F08F0B0CF9395880F08F09927EE0F36
S1130EF09795879508950E9482076894B1110C9480
S1130F00390808950E941E0888F09F5798F0B92F59
S1130F109927B751B0F0E1F0660F771F881F991F2A
S1130F201AF0BA95C9F714C0B13091F00E9438088C
S1130F30B1E008950C943808672F782F8827B85F9C
S1130F4039F0B93FCCF3869577956795B395D9F782
S1130F503EF490958095709561957F4F8F4F9F4F8C
S1130F600895E89409C097FB3EF490958095709598
S1130F7061957F4F8F4F9F4F9923A9F0F92F96E9E1
S1130F80BB279395F695879577956795B795F11156
S1130F90F8CFFAF4BB0F11F460FF1BC06F5F7F4FF3
S1130FA08F4F9F4F16C0882311F096E911C0772305
S1130FB021F09EE8872F762F05C0662371F096E80E
S1130FC0862F70E060E02AF09A95660F771F881FDD
S1130FD0DAF7880F9695879597F9089597F99F679B
S1130FE080E870E060E008959FEF80EC08950024AD
S1130FF00A941616170618060906089500240A947A
S113100012161306140605060895092E0394000CFF
S113101011F4882352F0BB0F40F4BF2B11F460FF8E
S113102004C06F5F7F4F8F4F9F4F089557FD9058B7
S1131030440F551F59F05F3F71F04795880F97FB98
S1131040991F61F09F3F79F0879508951216130652
S11310501406551FF2CF4695F1DF08C01616170681
S11310601806991FF1CF86957105610508940895B6
S1131070E894BB2766277727CB0197F90895FA01EF
S1131080EE0FFF1F309621053105A1F161157105A1
S113109061F48038BFE39B0749F168949038810577
S11310A061F08038BFEF9B0741F099234AF5FF3F79
S11310B0E1053105210519F1E8940894E795D90172
S11310C0AA2329F4AB2FBE2FF85FD0F310C0FF5F23
S11310D070F4A695E0F7F73950F019F0FF3A38F4B8
S11310E09F779F930DD00F9007FC9058089546F07A
S11310F00C94F40760E070E080E89FE308954FE704
S11311009F775F934F933F932F930E9495092F915D
S11311103F914F915F910E94110A0C94DD0819F4DC
S113112016F40C94F4070C940F090E941E08B8F3EB
S11311309923C9F3B6F39F57550B87FF0E941D09E6
S11311400024A0E640EA900180585695979528F42B
S1131150805C660F771F881F20F026173707480723
S113116030F4621B730B840B202931294A2BA6957A
S113117017940794202531254A2758F7660F771FBF
S1131180881F20F026173707480730F4620B730BCB
S1131190840B200D311D411DA09581F7B901842FC9
S11311A09158880F96958795089529F416F00C9414
S11311B0EE070C9438080C94F4070E941E08A8F358
S11311C09638A0F707F80F92E8942BE33AEA48EB35
S11311D05FE70E94270A0F920F920F924DB75EB7F6
S11311E00F920E94DD09E8E7F2E00E9424094F9182
S11311F05F91EF91FF91E595EE1FFF1F49F0FE57B8
S1131200E0684427EE0F441FFA95E1F74195550B2A
S11312100E9457090F9007FE0C944B0908959F3FB5
S113122031F0915020F4879577956795B795880F9D
S1131230911D9695879597F9089591505040660FA2
S1131240771F881FD2F70895DF93CF931F930F93CF
S1131250FF92EF92DF927B018C01689406C0DA2E34
S1131260EF010E94240AFE01E894A591259135918D
S113127045915591A6F3EF010E942607FE019701BF
S1131280A801DA9469F7DF90EF90FF900F911F9116
S1131290CF91DF9108959B01AC0160E070E080E89C
S11312A09FE30C947E0A0C94EE070C940F090E94A1
S11312B01E08D8F39923C9F3940F511DA3F3915039
S11312C0504094F059F0882332F0660F771F881F3E
S11312D091505040C1F79E3F51052CF7880F911D46
S11312E09695879597F908955F3FACF0983E9CF0EA
S11312F0BB27869577956795B79508F4B160939564
S1131300C1F7BB0F58F711F460FFE8CF6F5F7F4F51
S11313108F4F9F4FE3CF0C94390816F00C940F09AC
S11313200C94F40768940C94EE070E941E08A8F32A
S11313309923C1F3AEF3DF93CF931F930F93FF92DF
S1131340C92FDD2788232AF02197660F771F881F6E
S1131350DAF720E030E040E85FEB9FE3883920F0E3
S1131360803E38F021968F770E940F07E0EAF2E082
S113137004C00E940F07EDECF2E00E9424098B01E7
S1131380BE01EC01FB2E6F5771097595771F880B11
S1131390990B0E94B30728E132E741E35FE30E941F
S11313A0240AAF2D9801AE01FF900F911F91CF91A8
S11313B0DF910E9426070C940508FA01DC01AA0FAC
S11313C0BB1F9B01AC01BF5728F4222733274427B6
S11313D0507820C0B75190F4AB2F00244695379530
S11313E02795011CA395D2F3002071F0220F331F1F
S11313F0441FB395DAF30ED00C940E0761307105D7
S1131400A0E88A07B94630F49B01AC016627772728
S113141088279078309621F0208331834283538348
S113142008950E94240A0C9405080E94F70738F0D6
S11314300E94FE0720F0952311F00C94EE070C9403
S1131440F40711240C9439080E94160870F3959F30
S1131450C1F3950F50E0551F629FF001729FBB27A7
S1131460F00DB11D639FAA27F00DB11DAA1F649F43
S11314706627B00DA11D661F829F2227B00DA11DF6
S1131480621F739FB00DA11D621F839FA00D611D7C
S1131490221F749F3327A00D611D231F849F600D9D
S11314A0211D822F762F6A2F11249F5750409AF0C6
S11314B0F1F088234AF0EE0FFF1FBB1F661F771F52
S11314C0881F91505040A9F79E3F510580F00C941D
S11314D0EE070C9439085F3FE4F3983ED4F3869505
S11314E077956795B795F795E7959F5FC1F7FE2BBD
S11314F0880F911D9695879597F908950E94920AF1
S11315000C9405080E94FE0758F00E94F70740F06B
S113151029F45F3F29F00C94EE0751110C9439081B
S11315200C94F4070E94160868F39923B1F3552329
S113153091F3951B550BBB27AA27621773078407E2
S113154038F09F5F5F4F220F331F441FAA1FA9F378
S113155035D00E2E3AF0E0E832D091505040E69566
S1131560001CCAF72BD0FE2F29D0660F771F881FC7
S1131570BB1F261737074807AB07B0E809F0BB0BBA
S1131580802DBF01FF2793585F4F3AF09E3F5105CE
S113159078F00C94EE070C9439085F3FE4F3983E1E
S11315A0D4F3869577956795B795F7959F5FC9F7B7
S11315B0880F911D9695879597F90895E1E0660F38
S11315C0771F881FBB1F621773078407BA0720F0B1
S11315D0621B730B840BBA0BEE1F88F7E09508951A
S11315E0DB018F939F930E94250BBF91AF91A29F24
S11315F0800D911DA39F900DB29F900D112408950D
S1131600052E97FB1EF400940E94170B57FD07D07C
S11316100E94300B07FC03D04EF40C94170B50952A
S11316204095309521953F4F4F4F5F4F08959095CA
S11316308095709561957F4F8F4F9F4F0895EE0F62
S1131640FF1F0590F491E02D09940E94520BA59F71
S1131650900DB49F900DA49F800D911D11240895A9
S1131660A1E21A2EAA1BBB1BFD010DC0AA1FBB1FA2
S1131670EE1FFF1FA217B307E407F50720F0A21B14
S1131680B30BE40BF50B661F771F881F991F1A9481
S113169069F760957095809590959B01AC01BD01AB
S11316A0CF010895A29FB001B39FC001A39F700D05
S11316B0811D1124911DB29F700D811D1124911D56
S11316C00895FC0188279927E89421912032E9F3B1
S11316D0293010F02E30C8F32B3241F02D3239F47A
S11316E0689404C00E947F0B820F911D21912053A6
S11316F02A30C0F31EF4909581959F4F08957AE0A7
S1131700979F902D879F802D910D11240895AEE011
S1131710B0E0EDE8FBE00C94480E0D891E8986E0EC
S11317208C831A8309838FEF9FE79E838D83AE0199
S1131730475E5F4F6F89788DCE0101960E94A90B99
S1131740EF81F885E00FF11F10822E96E4E00C94EF
S1131750640EABE0B0E0EFEAFBE00C943A0E6C01EF
S11317607B018A01FC0117821682838181FFCCC12F
S1131770CE0101963C01F6019381F70193FD859119
S113178093FF81917F01882309F4BAC1853239F42A
S113179093FD859193FF81917F01853229F4B601F0
S11317A090E00E94A00DE7CF912C212C312CFFE179
S11317B0F315D8F08B3279F038F4803279F0833233
S11317C0A1F4232D20611DC08D3261F0803369F4B2
S11317D0232D216016C0832D8260382EE32DE46012
S11317E03E2E2AC0F32DF8601DC037FC2DC020ED1D
S11317F0280F2A3040F08E32B9F436FC81C1232DF3
S11318002064322E19C036FE06C08AE0989E200D50
S11318101124922E11C0EAE02E9E200D1124222EB6
S1131820F32DF0623F2E08C08C3621F4832D80689E
S1131830382E02C0883641F4F70193FD859193FF59
S113184081917F018111B3CF982F9F7D955493305F
S113185028F40C5F1F4F9FE399830DC0833631F04A
S1131860833771F0833509F059C021C0F8018081B4
S113187089830E5F1F4F88248394912C530113C0D6
S11318802801F2E04F0E511CF801A080B18036FE11
S113189003C0692D70E002C06FEF7FEFC5010E94A5
S11318A0950D4C018201F32DFF773F2E16C02801C0
S11318B022E0420E511CF801A080B18036FE03C024
S11318C0692D70E002C06FEF7FEFC5010E948A0DA1
S11318D04C01F32DF0683F2E820133FC1BC0822D96
S11318E090E088169906B0F4B60180E290E00E9478
S11318F0A00D2A94F4CFF50137FC859137FE819130
S11319005F01B60190E00E94A00D21102A9421E00D
S1131910821A91088114910471F7E8C0843611F099
S1131920893641F5F80137FE07C0608171818281F3
S113193093810C5F1F4F08C060817181072E000CDA
S1131940880B990B0E5F1F4FF32DFF763F2E97FFE9
S113195009C090958095709561957F4F8F4F9F4FEB
S1131960F0683F2E2AE030E0A3010E94DC0D882EAF
S1131970861845C0853731F4232D2F7EB22E2AE0F8
S113198030E025C0932D997FB92E8F36C1F018F41D
S1131990883579F0B5C0803719F0883721F0B0C0A8
S11319A0E92FE061BE2EB4FE0DC0FB2DF460BF2E06
S11319B009C034FE0AC0292F2660B22E06C028E0D2
S11319C030E005C020E130E002C020E132E0F8015F
S11319D0B7FE07C060817181828193810C5F1F4FC4
S11319E006C06081718180E090E00E5F1F4FA3010B
S11319F00E94DC0D882E8618FB2DFF773F2E36FEC5
S1131A000DC0232D2E7FA22E891458F434FE0BC052
S1131A1032FC09C0832D8E7EA82E05C0B82CA32CC1
S1131A2003C0B82C01C0B92CA4FE0FC0FE01E80D00
S1131A30F11D8081803321F49A2D997EA92E09C04D
S1131A40A2FE06C0B394B39404C08A2D867809F02C
S1131A50B394A3FC11C0A0FE06C0B21488F4280CF1
S1131A60922C9B180EC0B21460F4B60180E290E090
S1131A700E94A00DB394F7CFB21418F42B1802C02F
S1131A80982C212CA4FE10C0B60180E390E00E94A3
S1131A90A00DA2FE17C0A1FC03C088E790E002C01D
S1131AA088E590E0B6010CC08A2D867859F0A1FE35
S1131AB002C08BE201C080E2A7FC8DE2B60190E097
S1131AC00E94A00D891438F4B60180E390E00E94CE
S1131AD0A00D9A94F7CF8A94F301E80DF11D80814B
S1131AE0B60190E00E94A00D8110F5CF222009F4E8
S1131AF042CEB60180E290E00E94A00D2A94F6CF77
S1131B00F6018681978102C08FEF9FEF2B96E2E169
S1131B100C94560EFC010590615070400110D8F7EA
S1131B20809590958E0F9F1F0895FC016150704021
S1131B3001900110D8F7809590958E0F9F1F0895FE
S1131B400F931F93CF93DF93FB01238121FD03C0E8
S1131B508FEF9FEF2CC022FF16C04681578124814E
S1131B6035814217530744F4A081B1819D012F5F51
S1131B703F4F318320838C93268137812F5F3F4FE2
S1131B803783268314C08B01EC01FB010084F185AB
S1131B90E02D0995892BE1F6D80116968D919C913B
S1131BA01797019617969C938E931697CE01DF9103
S1131BB0CF911F910F910895FA01AA27283051F16E
S1131BC0203181F1E8946F936E7F6E5F7F4F8F4F6A
S1131BD09F4FAF4FB1E03ED0B4E03CD0670F781FC9
S1131BE0891F9A1FA11D680F791F8A1F911DA11DAE
S1131BF06A0F711D811D911DA11D20D009F46894E7
S1131C003F912AE0269F11243019305D3193DEF68E
S1131C10CF010895462F4770405D4193B3E00FD044
S1131C20C9F7F6CF462F4F70405D4A3318F0495D2F
S1131C3031FD4052419302D0A9F7EACFB4E0A69512
S1131C409795879577956795BA95C9F70097610534
S1131C50710508959B01AC010A2E0694579547958A
S1131C6037952795BA95C9F7620F731F841F951F7F
S1131C70A01D08952F923F924F925F926F927F9290
S1131C808F929F92AF92BF92CF92DF92EF92FF9288
S1131C900F931F93CF93DF93CDB7DEB7CA1BDB0B34
S1131CA00FB6F894DEBF0FBECDBF09942A883988D9
S1131CB048885F846E847D848C849B84AA84B984E0
S1131CC0C884DF80EE80FD800C811B81AA81B981EC
S1131CD0CE0FD11D0FB6F894DEBF0FBECDBFED0100
S1091CE00895F894FFCF03
S1131CE6413738392A2F5E3435362D4D2531323376
S1131CF62B4253302E3D2B43537172742800457288
S1131D066F7272004572726F723A20446976697313
S1131D16696F6E20006279207A65726F004572726F
S1131D266F723A204E6567617469766500737172E5
S10D1D367400256C6400416E730014
S9030000FC
